{
  "_format": "hh-sol-artifact-1",
  "contractName": "DAOMarketplaceNFT",
  "sourceName": "contracts/DAOMarketplaceNFT.sol",
  "abi": [
    {
      "inputs": [],
      "stateMutability": "nonpayable",
      "type": "constructor"
    },
    {
      "inputs": [
        {
          "internalType": "address",
          "name": "sender",
          "type": "address"
        },
        {
          "internalType": "uint256",
          "name": "tokenId",
          "type": "uint256"
        },
        {
          "internalType": "address",
          "name": "owner",
          "type": "address"
        }
      ],
      "name": "ERC721IncorrectOwner",
      "type": "error"
    },
    {
      "inputs": [
        {
          "internalType": "address",
          "name": "operator",
          "type": "address"
        },
        {
          "internalType": "uint256",
          "name": "tokenId",
          "type": "uint256"
        }
      ],
      "name": "ERC721InsufficientApproval",
      "type": "error"
    },
    {
      "inputs": [
        {
          "internalType": "address",
          "name": "approver",
          "type": "address"
        }
      ],
      "name": "ERC721InvalidApprover",
      "type": "error"
    },
    {
      "inputs": [
        {
          "internalType": "address",
          "name": "operator",
          "type": "address"
        }
      ],
      "name": "ERC721InvalidOperator",
      "type": "error"
    },
    {
      "inputs": [
        {
          "internalType": "address",
          "name": "owner",
          "type": "address"
        }
      ],
      "name": "ERC721InvalidOwner",
      "type": "error"
    },
    {
      "inputs": [
        {
          "internalType": "address",
          "name": "receiver",
          "type": "address"
        }
      ],
      "name": "ERC721InvalidReceiver",
      "type": "error"
    },
    {
      "inputs": [
        {
          "internalType": "address",
          "name": "sender",
          "type": "address"
        }
      ],
      "name": "ERC721InvalidSender",
      "type": "error"
    },
    {
      "inputs": [
        {
          "internalType": "uint256",
          "name": "tokenId",
          "type": "uint256"
        }
      ],
      "name": "ERC721NonexistentToken",
      "type": "error"
    },
    {
      "anonymous": false,
      "inputs": [
        {
          "indexed": true,
          "internalType": "address",
          "name": "owner",
          "type": "address"
        },
        {
          "indexed": true,
          "internalType": "address",
          "name": "approved",
          "type": "address"
        },
        {
          "indexed": true,
          "internalType": "uint256",
          "name": "tokenId",
          "type": "uint256"
        }
      ],
      "name": "Approval",
      "type": "event"
    },
    {
      "anonymous": false,
      "inputs": [
        {
          "indexed": true,
          "internalType": "address",
          "name": "owner",
          "type": "address"
        },
        {
          "indexed": true,
          "internalType": "address",
          "name": "operator",
          "type": "address"
        },
        {
          "indexed": false,
          "internalType": "bool",
          "name": "approved",
          "type": "bool"
        }
      ],
      "name": "ApprovalForAll",
      "type": "event"
    },
    {
      "anonymous": false,
      "inputs": [
        {
          "indexed": false,
          "internalType": "uint256",
          "name": "_fromTokenId",
          "type": "uint256"
        },
        {
          "indexed": false,
          "internalType": "uint256",
          "name": "_toTokenId",
          "type": "uint256"
        }
      ],
      "name": "BatchMetadataUpdate",
      "type": "event"
    },
    {
      "anonymous": false,
      "inputs": [
        {
          "indexed": false,
          "internalType": "uint256",
          "name": "_tokenId",
          "type": "uint256"
        }
      ],
      "name": "MetadataUpdate",
      "type": "event"
    },
    {
      "anonymous": false,
      "inputs": [
        {
          "indexed": true,
          "internalType": "uint256",
          "name": "tokenId",
          "type": "uint256"
        },
        {
          "indexed": true,
          "internalType": "address",
          "name": "creator",
          "type": "address"
        },
        {
          "indexed": false,
          "internalType": "string",
          "name": "tokenURI",
          "type": "string"
        }
      ],
      "name": "NFTMinted",
      "type": "event"
    },
    {
      "anonymous": false,
      "inputs": [
        {
          "indexed": true,
          "internalType": "address",
          "name": "from",
          "type": "address"
        },
        {
          "indexed": true,
          "internalType": "address",
          "name": "to",
          "type": "address"
        },
        {
          "indexed": true,
          "internalType": "uint256",
          "name": "tokenId",
          "type": "uint256"
        }
      ],
      "name": "Transfer",
      "type": "event"
    },
    {
      "inputs": [
        {
          "internalType": "address",
          "name": "to",
          "type": "address"
        },
        {
          "internalType": "uint256",
          "name": "tokenId",
          "type": "uint256"
        }
      ],
      "name": "approve",
      "outputs": [],
      "stateMutability": "nonpayable",
      "type": "function"
    },
    {
      "inputs": [
        {
          "internalType": "address",
          "name": "owner",
          "type": "address"
        }
      ],
      "name": "balanceOf",
      "outputs": [
        {
          "internalType": "uint256",
          "name": "",
          "type": "uint256"
        }
      ],
      "stateMutability": "view",
      "type": "function"
    },
    {
      "inputs": [
        {
          "internalType": "uint256",
          "name": "",
          "type": "uint256"
        }
      ],
      "name": "creator",
      "outputs": [
        {
          "internalType": "address",
          "name": "",
          "type": "address"
        }
      ],
      "stateMutability": "view",
      "type": "function"
    },
    {
      "inputs": [
        {
          "internalType": "uint256",
          "name": "tokenId",
          "type": "uint256"
        }
      ],
      "name": "getApproved",
      "outputs": [
        {
          "internalType": "address",
          "name": "",
          "type": "address"
        }
      ],
      "stateMutability": "view",
      "type": "function"
    },
    {
      "inputs": [
        {
          "internalType": "address",
          "name": "owner",
          "type": "address"
        },
        {
          "internalType": "address",
          "name": "operator",
          "type": "address"
        }
      ],
      "name": "isApprovedForAll",
      "outputs": [
        {
          "internalType": "bool",
          "name": "",
          "type": "bool"
        }
      ],
      "stateMutability": "view",
      "type": "function"
    },
    {
      "inputs": [
        {
          "internalType": "address",
          "name": "to",
          "type": "address"
        },
        {
          "internalType": "string",
          "name": "uri",
          "type": "string"
        }
      ],
      "name": "mint",
      "outputs": [
        {
          "internalType": "uint256",
          "name": "",
          "type": "uint256"
        }
      ],
      "stateMutability": "nonpayable",
      "type": "function"
    },
    {
      "inputs": [],
      "name": "name",
      "outputs": [
        {
          "internalType": "string",
          "name": "",
          "type": "string"
        }
      ],
      "stateMutability": "view",
      "type": "function"
    },
    {
      "inputs": [
        {
          "internalType": "uint256",
          "name": "tokenId",
          "type": "uint256"
        }
      ],
      "name": "ownerOf",
      "outputs": [
        {
          "internalType": "address",
          "name": "",
          "type": "address"
        }
      ],
      "stateMutability": "view",
      "type": "function"
    },
    {
      "inputs": [
        {
          "internalType": "address",
          "name": "from",
          "type": "address"
        },
        {
          "internalType": "address",
          "name": "to",
          "type": "address"
        },
        {
          "internalType": "uint256",
          "name": "tokenId",
          "type": "uint256"
        }
      ],
      "name": "safeTransferFrom",
      "outputs": [],
      "stateMutability": "nonpayable",
      "type": "function"
    },
    {
      "inputs": [
        {
          "internalType": "address",
          "name": "from",
          "type": "address"
        },
        {
          "internalType": "address",
          "name": "to",
          "type": "address"
        },
        {
          "internalType": "uint256",
          "name": "tokenId",
          "type": "uint256"
        },
        {
          "internalType": "bytes",
          "name": "data",
          "type": "bytes"
        }
      ],
      "name": "safeTransferFrom",
      "outputs": [],
      "stateMutability": "nonpayable",
      "type": "function"
    },
    {
      "inputs": [
        {
          "internalType": "address",
          "name": "operator",
          "type": "address"
        },
        {
          "internalType": "bool",
          "name": "approved",
          "type": "bool"
        }
      ],
      "name": "setApprovalForAll",
      "outputs": [],
      "stateMutability": "nonpayable",
      "type": "function"
    },
    {
      "inputs": [
        {
          "internalType": "bytes4",
          "name": "interfaceId",
          "type": "bytes4"
        }
      ],
      "name": "supportsInterface",
      "outputs": [
        {
          "internalType": "bool",
          "name": "",
          "type": "bool"
        }
      ],
      "stateMutability": "view",
      "type": "function"
    },
    {
      "inputs": [],
      "name": "symbol",
      "outputs": [
        {
          "internalType": "string",
          "name": "",
          "type": "string"
        }
      ],
      "stateMutability": "view",
      "type": "function"
    },
    {
      "inputs": [
        {
          "internalType": "uint256",
          "name": "tokenId",
          "type": "uint256"
        }
      ],
      "name": "tokenURI",
      "outputs": [
        {
          "internalType": "string",
          "name": "",
          "type": "string"
        }
      ],
      "stateMutability": "view",
      "type": "function"
    },
    {
      "inputs": [],
      "name": "totalSupply",
      "outputs": [
        {
          "internalType": "uint256",
          "name": "",
          "type": "uint256"
        }
      ],
      "stateMutability": "view",
      "type": "function"
    },
    {
      "inputs": [
        {
          "internalType": "address",
          "name": "from",
          "type": "address"
        },
        {
          "internalType": "address",
          "name": "to",
          "type": "address"
        },
        {
          "internalType": "uint256",
          "name": "tokenId",
          "type": "uint256"
        }
      ],
      "name": "transferFrom",
      "outputs": [],
      "stateMutability": "nonpayable",
      "type": "function"
    }
  ],
  "bytecode": "0x60806040523480156200001157600080fd5b506040518060400160405280601381526020017f44414f204d61726b6574706c616365204e4654000000000000000000000000008152506040518060400160405280600681526020017f44414f4e4654000000000000000000000000000000000000000000000000000081525081600090816200008f91906200032c565b508060019081620000a191906200032c565b505050600160078190555062000413565b600081519050919050565b7f4e487b7100000000000000000000000000000000000000000000000000000000600052604160045260246000fd5b7f4e487b7100000000000000000000000000000000000000000000000000000000600052602260045260246000fd5b600060028204905060018216806200013457607f821691505b6020821081036200014a5762000149620000ec565b5b50919050565b60008190508160005260206000209050919050565b60006020601f8301049050919050565b600082821b905092915050565b600060088302620001b47fffffffffffffffffffffffffffffffffffffffffffffffffffffffffffffffff8262000175565b620001c0868362000175565b95508019841693508086168417925050509392505050565b6000819050919050565b6000819050919050565b60006200020d620002076200020184620001d8565b620001e2565b620001d8565b9050919050565b6000819050919050565b6200022983620001ec565b62000241620002388262000214565b84845462000182565b825550505050565b600090565b6200025862000249565b620002658184846200021e565b505050565b5b818110156200028d57620002816000826200024e565b6001810190506200026b565b5050565b601f821115620002dc57620002a68162000150565b620002b18462000165565b81016020851015620002c1578190505b620002d9620002d08562000165565b8301826200026a565b50505b505050565b600082821c905092915050565b60006200030160001984600802620002e1565b1980831691505092915050565b60006200031c8383620002ee565b9150826002028217905092915050565b6200033782620000b2565b67ffffffffffffffff811115620003535762000352620000bd565b5b6200035f82546200011b565b6200036c82828562000291565b600060209050601f831160018114620003a457600084156200038f578287015190505b6200039b85826200030e565b8655506200040b565b601f198416620003b48662000150565b60005b82811015620003de57848901518255600182019150602085019450602081019050620003b7565b86831015620003fe5784890151620003fa601f891682620002ee565b8355505b6001600288020188555050505b505050505050565b61258680620004236000396000f3fe608060405234801561001057600080fd5b50600436106101005760003560e01c80636352211e11610097578063b88d4fde11610066578063b88d4fde146102bf578063c87b56dd146102db578063d0def5211461030b578063e985e9c51461033b57610100565b80636352211e1461022557806370a082311461025557806395d89b4114610285578063a22cb465146102a357610100565b806318160ddd116100d357806318160ddd1461019f57806323b872dd146101bd57806342842e0e146101d9578063510b5158146101f557610100565b806301ffc9a71461010557806306fdde0314610135578063081812fc14610153578063095ea7b314610183575b600080fd5b61011f600480360381019061011a91906119aa565b61036b565b60405161012c91906119f2565b60405180910390f35b61013d6103cc565b60405161014a9190611a9d565b60405180910390f35b61016d60048036038101906101689190611af5565b61045e565b60405161017a9190611b63565b60405180910390f35b61019d60048036038101906101989190611baa565b61047a565b005b6101a7610490565b6040516101b49190611bf9565b60405180910390f35b6101d760048036038101906101d29190611c14565b6104a6565b005b6101f360048036038101906101ee9190611c14565b6105a8565b005b61020f600480360381019061020a9190611af5565b6105c8565b60405161021c9190611b63565b60405180910390f35b61023f600480360381019061023a9190611af5565b6105fb565b60405161024c9190611b63565b60405180910390f35b61026f600480360381019061026a9190611c67565b61060d565b60405161027c9190611bf9565b60405180910390f35b61028d6106c7565b60405161029a9190611a9d565b60405180910390f35b6102bd60048036038101906102b89190611cc0565b610759565b005b6102d960048036038101906102d49190611e35565b61076f565b005b6102f560048036038101906102f09190611af5565b610794565b6040516103029190611a9d565b60405180910390f35b61032560048036038101906103209190611f59565b6108a7565b6040516103329190611bf9565b60405180910390f35b61035560048036038101906103509190611fb5565b610986565b60405161036291906119f2565b60405180910390f35b6000634906490660e01b7bffffffffffffffffffffffffffffffffffffffffffffffffffffffff1916827bffffffffffffffffffffffffffffffffffffffffffffffffffffffff191614806103c557506103c482610a1a565b5b9050919050565b6060600080546103db90612024565b80601f016020809104026020016040519081016040528092919081815260200182805461040790612024565b80156104545780601f1061042957610100808354040283529160200191610454565b820191906000526020600020905b81548152906001019060200180831161043757829003601f168201915b5050505050905090565b600061046982610afc565b5061047382610b84565b9050919050565b61048c8282610487610bc1565b610bc9565b5050565b600060016007546104a19190612084565b905090565b600073ffffffffffffffffffffffffffffffffffffffff168273ffffffffffffffffffffffffffffffffffffffff16036105185760006040517f64a0ae9200000000000000000000000000000000000000000000000000000000815260040161050f9190611b63565b60405180910390fd5b600061052c8383610527610bc1565b610bdb565b90508373ffffffffffffffffffffffffffffffffffffffff168173ffffffffffffffffffffffffffffffffffffffff16146105a2578382826040517f64283d7b000000000000000000000000000000000000000000000000000000008152600401610599939291906120b8565b60405180910390fd5b50505050565b6105c38383836040518060200160405280600081525061076f565b505050565b60086020528060005260406000206000915054906101000a900473ffffffffffffffffffffffffffffffffffffffff1681565b600061060682610afc565b9050919050565b60008073ffffffffffffffffffffffffffffffffffffffff168273ffffffffffffffffffffffffffffffffffffffff16036106805760006040517f89c62b640000000000000000000000000000000000000000000000000000000081526004016106779190611b63565b60405180910390fd5b600360008373ffffffffffffffffffffffffffffffffffffffff1673ffffffffffffffffffffffffffffffffffffffff168152602001908152602001600020549050919050565b6060600180546106d690612024565b80601f016020809104026020016040519081016040528092919081815260200182805461070290612024565b801561074f5780601f106107245761010080835404028352916020019161074f565b820191906000526020600020905b81548152906001019060200180831161073257829003601f168201915b5050505050905090565b61076b610764610bc1565b8383610df5565b5050565b61077a8484846104a6565b61078e610785610bc1565b85858585610f64565b50505050565b606061079f82610afc565b5060006006600084815260200190815260200160002080546107c090612024565b80601f01602080910402602001604051908101604052809291908181526020018280546107ec90612024565b80156108395780601f1061080e57610100808354040283529160200191610839565b820191906000526020600020905b81548152906001019060200180831161081c57829003601f168201915b50505050509050600061084a611115565b9050600081510361085f5781925050506108a2565b60008251111561089457808260405160200161087c92919061212b565b604051602081830303815290604052925050506108a2565b61089d8461112c565b925050505b919050565b6000806007549050600760008154809291906108c29061214f565b91905055506108d18482611195565b6108db81846111b3565b336008600083815260200190815260200160002060006101000a81548173ffffffffffffffffffffffffffffffffffffffff021916908373ffffffffffffffffffffffffffffffffffffffff1602179055503373ffffffffffffffffffffffffffffffffffffffff16817f06becd955c918828f6e985541acbf49cc842c9e9bd569fffc7698e721ef13575856040516109749190611a9d565b60405180910390a38091505092915050565b6000600560008473ffffffffffffffffffffffffffffffffffffffff1673ffffffffffffffffffffffffffffffffffffffff16815260200190815260200160002060008373ffffffffffffffffffffffffffffffffffffffff1673ffffffffffffffffffffffffffffffffffffffff16815260200190815260200160002060009054906101000a900460ff16905092915050565b60007f80ac58cd000000000000000000000000000000000000000000000000000000007bffffffffffffffffffffffffffffffffffffffffffffffffffffffff1916827bffffffffffffffffffffffffffffffffffffffffffffffffffffffff19161480610ae557507f5b5e139f000000000000000000000000000000000000000000000000000000007bffffffffffffffffffffffffffffffffffffffffffffffffffffffff1916827bffffffffffffffffffffffffffffffffffffffffffffffffffffffff1916145b80610af55750610af48261120f565b5b9050919050565b600080610b0883611279565b9050600073ffffffffffffffffffffffffffffffffffffffff168173ffffffffffffffffffffffffffffffffffffffff1603610b7b57826040517f7e273289000000000000000000000000000000000000000000000000000000008152600401610b729190611bf9565b60405180910390fd5b80915050919050565b60006004600083815260200190815260200160002060009054906101000a900473ffffffffffffffffffffffffffffffffffffffff169050919050565b600033905090565b610bd683838360016112b6565b505050565b600080610be784611279565b9050600073ffffffffffffffffffffffffffffffffffffffff168373ffffffffffffffffffffffffffffffffffffffff1614610c2957610c2881848661147b565b5b600073ffffffffffffffffffffffffffffffffffffffff168173ffffffffffffffffffffffffffffffffffffffff1614610cba57610c6b6000856000806112b6565b6001600360008373ffffffffffffffffffffffffffffffffffffffff1673ffffffffffffffffffffffffffffffffffffffff168152602001908152602001600020600082825403925050819055505b600073ffffffffffffffffffffffffffffffffffffffff168573ffffffffffffffffffffffffffffffffffffffff1614610d3d576001600360008773ffffffffffffffffffffffffffffffffffffffff1673ffffffffffffffffffffffffffffffffffffffff168152602001908152602001600020600082825401925050819055505b846002600086815260200190815260200160002060006101000a81548173ffffffffffffffffffffffffffffffffffffffff021916908373ffffffffffffffffffffffffffffffffffffffff160217905550838573ffffffffffffffffffffffffffffffffffffffff168273ffffffffffffffffffffffffffffffffffffffff167fddf252ad1be2c89b69c2b068fc378daa952ba7f163c4a11628f55a4df523b3ef60405160405180910390a4809150509392505050565b600073ffffffffffffffffffffffffffffffffffffffff168273ffffffffffffffffffffffffffffffffffffffff1603610e6657816040517f5b08ba18000000000000000000000000000000000000000000000000000000008152600401610e5d9190611b63565b60405180910390fd5b80600560008573ffffffffffffffffffffffffffffffffffffffff1673ffffffffffffffffffffffffffffffffffffffff16815260200190815260200160002060008473ffffffffffffffffffffffffffffffffffffffff1673ffffffffffffffffffffffffffffffffffffffff16815260200190815260200160002060006101000a81548160ff0219169083151502179055508173ffffffffffffffffffffffffffffffffffffffff168373ffffffffffffffffffffffffffffffffffffffff167f17307eab39ab6107e8899845ad3d59bd9653f200f220920489ca2b5937696c3183604051610f5791906119f2565b60405180910390a3505050565b60008373ffffffffffffffffffffffffffffffffffffffff163b111561110e578273ffffffffffffffffffffffffffffffffffffffff1663150b7a02868685856040518563ffffffff1660e01b8152600401610fc394939291906121ec565b6020604051808303816000875af1925050508015610fff57506040513d601f19601f82011682018060405250810190610ffc919061224d565b60015b611083573d806000811461102f576040519150601f19603f3d011682016040523d82523d6000602084013e611034565b606091505b50600081510361107b57836040517f64a0ae920000000000000000000000000000000000000000000000000000000081526004016110729190611b63565b60405180910390fd5b805160208201fd5b63150b7a0260e01b7bffffffffffffffffffffffffffffffffffffffffffffffffffffffff1916817bffffffffffffffffffffffffffffffffffffffffffffffffffffffff19161461110c57836040517f64a0ae920000000000000000000000000000000000000000000000000000000081526004016111039190611b63565b60405180910390fd5b505b5050505050565b606060405180602001604052806000815250905090565b606061113782610afc565b506000611142611115565b90506000815111611162576040518060200160405280600081525061118d565b8061116c8461153f565b60405160200161117d92919061212b565b6040516020818303038152906040525b915050919050565b6111af82826040518060200160405280600081525061160d565b5050565b806006600084815260200190815260200160002090816111d39190612426565b507ff8e1a15aba9398e019f0b49df1a4fde98ee17ae345cb5f6b5e2c27f5033e8ce7826040516112039190611bf9565b60405180910390a15050565b60007f01ffc9a7000000000000000000000000000000000000000000000000000000007bffffffffffffffffffffffffffffffffffffffffffffffffffffffff1916827bffffffffffffffffffffffffffffffffffffffffffffffffffffffff1916149050919050565b60006002600083815260200190815260200160002060009054906101000a900473ffffffffffffffffffffffffffffffffffffffff169050919050565b80806112ef5750600073ffffffffffffffffffffffffffffffffffffffff168273ffffffffffffffffffffffffffffffffffffffff1614155b156114235760006112ff84610afc565b9050600073ffffffffffffffffffffffffffffffffffffffff168373ffffffffffffffffffffffffffffffffffffffff161415801561136a57508273ffffffffffffffffffffffffffffffffffffffff168173ffffffffffffffffffffffffffffffffffffffff1614155b801561137d575061137b8184610986565b155b156113bf57826040517fa9fbf51f0000000000000000000000000000000000000000000000000000000081526004016113b69190611b63565b60405180910390fd5b811561142157838573ffffffffffffffffffffffffffffffffffffffff168273ffffffffffffffffffffffffffffffffffffffff167f8c5be1e5ebec7d5bd14f71427d1e84f3dd0314c0f7b2291e5b200ac8c7c3b92560405160405180910390a45b505b836004600085815260200190815260200160002060006101000a81548173ffffffffffffffffffffffffffffffffffffffff021916908373ffffffffffffffffffffffffffffffffffffffff16021790555050505050565b611486838383611631565b61153a57600073ffffffffffffffffffffffffffffffffffffffff168373ffffffffffffffffffffffffffffffffffffffff16036114fb57806040517f7e2732890000000000000000000000000000000000000000000000000000000081526004016114f29190611bf9565b60405180910390fd5b81816040517f177e802f0000000000000000000000000000000000000000000000000000000081526004016115319291906124f8565b60405180910390fd5b505050565b60606000600161154e846116f2565b01905060008167ffffffffffffffff81111561156d5761156c611d0a565b5b6040519080825280601f01601f19166020018201604052801561159f5781602001600182028036833780820191505090505b509050600082602083010190505b600115611602578080600190039150507f3031323334353637383961626364656600000000000000000000000000000000600a86061a8153600a85816115f6576115f5612521565b5b049450600085036115ad575b819350505050919050565b6116178383611845565b61162c611622610bc1565b6000858585610f64565b505050565b60008073ffffffffffffffffffffffffffffffffffffffff168373ffffffffffffffffffffffffffffffffffffffff16141580156116e957508273ffffffffffffffffffffffffffffffffffffffff168473ffffffffffffffffffffffffffffffffffffffff1614806116aa57506116a98484610986565b5b806116e857508273ffffffffffffffffffffffffffffffffffffffff166116d083610b84565b73ffffffffffffffffffffffffffffffffffffffff16145b5b90509392505050565b600080600090507a184f03e93ff9f4daa797ed6e38ed64bf6a1f0100000000000000008310611750577a184f03e93ff9f4daa797ed6e38ed64bf6a1f010000000000000000838161174657611745612521565b5b0492506040810190505b6d04ee2d6d415b85acef8100000000831061178d576d04ee2d6d415b85acef8100000000838161178357611782612521565b5b0492506020810190505b662386f26fc1000083106117bc57662386f26fc1000083816117b2576117b1612521565b5b0492506010810190505b6305f5e10083106117e5576305f5e10083816117db576117da612521565b5b0492506008810190505b612710831061180a576127108381611800576117ff612521565b5b0492506004810190505b6064831061182d576064838161182357611822612521565b5b0492506002810190505b600a831061183c576001810190505b80915050919050565b600073ffffffffffffffffffffffffffffffffffffffff168273ffffffffffffffffffffffffffffffffffffffff16036118b75760006040517f64a0ae920000000000000000000000000000000000000000000000000000000081526004016118ae9190611b63565b60405180910390fd5b60006118c583836000610bdb565b9050600073ffffffffffffffffffffffffffffffffffffffff168173ffffffffffffffffffffffffffffffffffffffff16146119395760006040517f73c6ac6e0000000000000000000000000000000000000000000000000000000081526004016119309190611b63565b60405180910390fd5b505050565b6000604051905090565b600080fd5b600080fd5b60007fffffffff0000000000000000000000000000000000000000000000000000000082169050919050565b61198781611952565b811461199257600080fd5b50565b6000813590506119a48161197e565b92915050565b6000602082840312156119c0576119bf611948565b5b60006119ce84828501611995565b91505092915050565b60008115159050919050565b6119ec816119d7565b82525050565b6000602082019050611a0760008301846119e3565b92915050565b600081519050919050565b600082825260208201905092915050565b60005b83811015611a47578082015181840152602081019050611a2c565b60008484015250505050565b6000601f19601f8301169050919050565b6000611a6f82611a0d565b611a798185611a18565b9350611a89818560208601611a29565b611a9281611a53565b840191505092915050565b60006020820190508181036000830152611ab78184611a64565b905092915050565b6000819050919050565b611ad281611abf565b8114611add57600080fd5b50565b600081359050611aef81611ac9565b92915050565b600060208284031215611b0b57611b0a611948565b5b6000611b1984828501611ae0565b91505092915050565b600073ffffffffffffffffffffffffffffffffffffffff82169050919050565b6000611b4d82611b22565b9050919050565b611b5d81611b42565b82525050565b6000602082019050611b786000830184611b54565b92915050565b611b8781611b42565b8114611b9257600080fd5b50565b600081359050611ba481611b7e565b92915050565b60008060408385031215611bc157611bc0611948565b5b6000611bcf85828601611b95565b9250506020611be085828601611ae0565b9150509250929050565b611bf381611abf565b82525050565b6000602082019050611c0e6000830184611bea565b92915050565b600080600060608486031215611c2d57611c2c611948565b5b6000611c3b86828701611b95565b9350506020611c4c86828701611b95565b9250506040611c5d86828701611ae0565b9150509250925092565b600060208284031215611c7d57611c7c611948565b5b6000611c8b84828501611b95565b91505092915050565b611c9d816119d7565b8114611ca857600080fd5b50565b600081359050611cba81611c94565b92915050565b60008060408385031215611cd757611cd6611948565b5b6000611ce585828601611b95565b9250506020611cf685828601611cab565b9150509250929050565b600080fd5b600080fd5b7f4e487b7100000000000000000000000000000000000000000000000000000000600052604160045260246000fd5b611d4282611a53565b810181811067ffffffffffffffff82111715611d6157611d60611d0a565b5b80604052505050565b6000611d7461193e565b9050611d808282611d39565b919050565b600067ffffffffffffffff821115611da057611d9f611d0a565b5b611da982611a53565b9050602081019050919050565b82818337600083830152505050565b6000611dd8611dd384611d85565b611d6a565b905082815260208101848484011115611df457611df3611d05565b5b611dff848285611db6565b509392505050565b600082601f830112611e1c57611e1b611d00565b5b8135611e2c848260208601611dc5565b91505092915050565b60008060008060808587031215611e4f57611e4e611948565b5b6000611e5d87828801611b95565b9450506020611e6e87828801611b95565b9350506040611e7f87828801611ae0565b925050606085013567ffffffffffffffff811115611ea057611e9f61194d565b5b611eac87828801611e07565b91505092959194509250565b600067ffffffffffffffff821115611ed357611ed2611d0a565b5b611edc82611a53565b9050602081019050919050565b6000611efc611ef784611eb8565b611d6a565b905082815260208101848484011115611f1857611f17611d05565b5b611f23848285611db6565b509392505050565b600082601f830112611f4057611f3f611d00565b5b8135611f50848260208601611ee9565b91505092915050565b60008060408385031215611f7057611f6f611948565b5b6000611f7e85828601611b95565b925050602083013567ffffffffffffffff811115611f9f57611f9e61194d565b5b611fab85828601611f2b565b9150509250929050565b60008060408385031215611fcc57611fcb611948565b5b6000611fda85828601611b95565b9250506020611feb85828601611b95565b9150509250929050565b7f4e487b7100000000000000000000000000000000000000000000000000000000600052602260045260246000fd5b6000600282049050600182168061203c57607f821691505b60208210810361204f5761204e611ff5565b5b50919050565b7f4e487b7100000000000000000000000000000000000000000000000000000000600052601160045260246000fd5b600061208f82611abf565b915061209a83611abf565b92508282039050818111156120b2576120b1612055565b5b92915050565b60006060820190506120cd6000830186611b54565b6120da6020830185611bea565b6120e76040830184611b54565b949350505050565b600081905092915050565b600061210582611a0d565b61210f81856120ef565b935061211f818560208601611a29565b80840191505092915050565b600061213782856120fa565b915061214382846120fa565b91508190509392505050565b600061215a82611abf565b91507fffffffffffffffffffffffffffffffffffffffffffffffffffffffffffffffff820361218c5761218b612055565b5b600182019050919050565b600081519050919050565b600082825260208201905092915050565b60006121be82612197565b6121c881856121a2565b93506121d8818560208601611a29565b6121e181611a53565b840191505092915050565b60006080820190506122016000830187611b54565b61220e6020830186611b54565b61221b6040830185611bea565b818103606083015261222d81846121b3565b905095945050505050565b6000815190506122478161197e565b92915050565b60006020828403121561226357612262611948565b5b600061227184828501612238565b91505092915050565b60008190508160005260206000209050919050565b60006020601f8301049050919050565b600082821b905092915050565b6000600883026122dc7fffffffffffffffffffffffffffffffffffffffffffffffffffffffffffffffff8261229f565b6122e6868361229f565b95508019841693508086168417925050509392505050565b6000819050919050565b600061232361231e61231984611abf565b6122fe565b611abf565b9050919050565b6000819050919050565b61233d83612308565b6123516123498261232a565b8484546122ac565b825550505050565b600090565b612366612359565b612371818484612334565b505050565b5b818110156123955761238a60008261235e565b600181019050612377565b5050565b601f8211156123da576123ab8161227a565b6123b48461228f565b810160208510156123c3578190505b6123d76123cf8561228f565b830182612376565b50505b505050565b600082821c905092915050565b60006123fd600019846008026123df565b1980831691505092915050565b600061241683836123ec565b9150826002028217905092915050565b61242f82611a0d565b67ffffffffffffffff81111561244857612447611d0a565b5b6124528254612024565b61245d828285612399565b600060209050601f831160018114612490576000841561247e578287015190505b612488858261240a565b8655506124f0565b601f19841661249e8661227a565b60005b828110156124c6578489015182556001820191506020850194506020810190506124a1565b868310156124e357848901516124df601f8916826123ec565b8355505b6001600288020188555050505b505050505050565b600060408201905061250d6000830185611b54565b61251a6020830184611bea565b9392505050565b7f4e487b7100000000000000000000000000000000000000000000000000000000600052601260045260246000fdfea2646970667358221220dda5c8f0de53e9df3fc2b77db9743112d868758bc5d63698f7f2fe8acaa0c39964736f6c63430008140033",
  "linkReferences": {},
  "deployedLinkReferences": {}
}